:020000040000FA
:040000009E31202EDF
:043C3C009E31202E67
:103C40007E01C312400193167E01C41640018D1AF5
:103C50001E2E8D1EFE33B0012030B200B300B40121
:103C6000A030B500B600B7017E010F309D004201C3
:103C70001E159C0103309B0008309F0090309D0072
:103C80004001452630183427FC33B01F1F324E0147
:103C90000F1E1A324001B7030319B013360886000D
:103CA00002308700160042019A0040010608B60063
:103CB000F03A031D0232A030B600B01B05324201BB
:103CC0009E1CFE339E121D16400108004E018F1EE1
:103CD000FB33420119084001B1003208860002306E
:103CE000870031081E000A3A03193014B40A060886
:103CF000B200703A031DE8332030B20042019D1C2F
:103D0000E3331D121908190819081D16DD33500177
:103D100070089A0071089B001E131E161E1593262C
:103D20001E1140010800500155309F00AA309F002D
:103D30009E1408000130850070087104031D0A32CA
:103D40002030840031301A009E301A002E301A00C4
:103D500020301A0020308400500170089A00710849
:103D60009B001E131E159E1612009D0012009C0043
:103D70001A081F3A1F390319033293269A0AF4339B
:103D80009E1293261E1140010800500170089A00EF
:103D900071089B0001308500203084001E131E1422
:103DA0001D081A001C081A009A0A1A081F39031D58
:103DB000F63340010800C100023085003508840058
:103DC00041081A00B70A0408B500F03A031D0800BC
:103DD000A030B50008000F39F63E0318073E3A3E02
:103DE000EA33C200420EEB264208EB2EB0123F30FF
:103DF000DB2602322A30DB260A30DB26B0174201EE
:103E00001D129E1640010800023085003308840010
:103E10001200B403C3000408B300703A031D023259
:103E20002030B300430808000427091F182F093E5B
:103E30000F3908001427C400C40E142744040800D6
:103E400034080319D3330427FB3304271A27F1005E
:103E50001A27F000042708002527203070021E30A2
:103E6000713B0318B016080030100230850033088B
:103E7000840000086A3A031D193208303406031D15
:103E8000DF3304271A2787001A2786001A27C50060
:103E900004271A304502891B02321A30C500160069
:103EA000F1262030DB26C50BFA33A63300084B3A47
:103EB000031D08320427DB26340803199F33042727
:103EC000DB26FA330008513A031D01321E2E00088A
:103ED000523A031D1B3206303406031D0732301FD1
:103EE000AF332C27B01A8233C5268433043034060E
:103EF000031DA63304270427453A031DA1330427D5
:103F0000413A031D9D3330170427743300086D3A7E
:103F1000031D1332301F943324303406031D9033B5
:103F200004271A278600013087001030C6001A27A0
:103F30001E00C60BFC3304275D330008753A031DD1
:103F40000B32301F7D3306303406031D79332C27A6
:103F5000B01A4C339A264E330008623A031D0B32D6
:103F6000301F6E3306303406031D6A332C27B01A17
:103F70003D3387263F330008693A031D6133023021
:103F80003406031D5D33042704271D30F12602305B
:043F9000F1263233B1
:020000040001F9
:02000E008C174D
:08001000DF379F3FFF3DFF3F7A
:00000001FF
