:020000040000FA
:040000008E31202EEF
:041C3C008E31202E97
:101C40007E013812400112167E01391640010C1A2D
:101C50001E2E0C1EFE33B0012030B200B300B401C2
:101C6000A030B500B600B7017D010430CB007E0185
:101C70000F30940042011E159C0103309B00083078
:101C80009F0090309D004001482630183727FC33D4
:101C9000B01F1F324E010F1E1A324001B703031945
:101CA000B0133608860002308700160042019A0001
:101CB00040010608B600F03A031D0232A030B6001B
:101CC000B01B053242019E1CFE339E121D164001C0
:101CD00008004E018F1EFB33420119084001B1007C
:101CE000320886000230870031081E000A3A0319C4
:101CF0003014B40A0608B200703A031DE8332030ED
:101D0000B20042019D1CE3331D121908190819087D
:101D10001D16DD33500170089A0071089B001E13D8
:101D20001E161E1596261E11400108005001553042
:101D30009F00AA309F009E140800013085007008A3
:101D40007104031D0A322030840031301A008E30B5
:101D50001A002E301A0020301A0020308400500162
:101D600070089A0071089B001E131E159E16120023
:101D70009D0012009C001A081F3A1F3903190332F4
:101D800096269A0AF4339E1296261E1140010800E8
:101D9000500170089A0071089B00013085002030C6
:101DA00084001E131E141D081A001C081A009A0A2B
:101DB0001A081F39031DF63340010800C100023024
:101DC00085003508840041081A00B70A0408B500E8
:101DD000F03A031D0800A030B50008000F39F63EA8
:101DE0000318073E3A3EEA33C200420EEE2642088E
:101DF000EE2EB0123F30DE2602322A30DE260A30C6
:101E0000DE26B01742011D129E1640010800023066
:101E10008500330884001200B403C3000408B30033
:101E2000703A031D02322030B30043080800072730
:101E3000091F1B2F093E0F3908001727C400C40EC5
:101E400017274404080034080319D3330727FB334A
:101E500007271D27F1001D27F00007270800282766
:101E6000203070020E30713B0318B016080030109D
:101E7000023085003308840000086A3A031D1932D5
:101E800008303406031DDF3307271D2787001D2771
:101E900086001D27C50007271A304502891B02321C
:101EA0001A30C5001600F4262030DE26C50BFA33A2
:101EB000A63300084B3A031D08320727DE263408F4
:101EC00003199F330727DE26FA330008513A031D12
:101ED00001321E2E0008523A031D1B320630340612
:101EE000031D0732301FAF332F27B01A8233C826A5
:101EF000843304303406031DA63307270727453AE9
:101F0000031DA1330727413A031D9D3330170727CF
:101F1000743300086D3A031D1332301F943324309C
:101F20003406031D903307271D27860001308700E4
:101F30001030C6001D271E00C60BFC3307275D337B
:101F40000008753A031D0B32301F7D33063034060E
:101F5000031D79332F27B01A4C339D264E330008CA
:101F6000623A031D0B32301F6E3306303406031DF8
:101F70006A332F27B01A3D338A263F330008693A67
:101F8000031D613302303406031D5D330727072725
:0A1F90001330F4260230F426323339
:020000040001F9
:02000E008C174D
:08001000DF379F3FFF3DFF3F7A
:00000001FF
